{
	"data": {
		"bytecode": {
			"linkReferences": {},
			"object": "60806040526729a2241af62c00005f8190555061077c8061001f5f395ff3fe608060405260043610610049575f3560e01c8063047abed71461004d5780630d8e6e2c1461008957806398d5fdca1461009f578063b6a324e0146100c9578063ef75336e146100d3575b5f5ffd5b348015610058575f5ffd5b50610073600480360381019061006e91906103df565b6100fd565b6040516100809190610419565b60405180910390f35b348015610094575f5ffd5b5061009d610130565b005b3480156100aa575f5ffd5b506100b36101b9565b6040516100c09190610419565b60405180910390f35b6100d161025e565b005b3480156100de575f5ffd5b506100e76103a3565b6040516100f49190610419565b60405180910390f35b5f5f670de0b6b3a76400006101106101b9565b8461011b919061045f565b61012591906104cd565b905080915050919050565b5f73694aa1769357215de4fac081bf1f309adc32530690508073ffffffffffffffffffffffffffffffffffffffff166354fd4d506040518163ffffffff1660e01b8152600401602060405180830381865afa158015610191573d5f5f3e3d5ffd5b505050506040513d601f19601f820116820180604052508101906101b59190610511565b5050565b5f5f73694aa1769357215de4fac081bf1f309adc32530690505f8173ffffffffffffffffffffffffffffffffffffffff1663feaf968c6040518163ffffffff1660e01b815260040160a060405180830381865afa15801561021c573d5f5f3e3d5ffd5b505050506040513d601f19601f8201168201806040525081019061024091906105ae565b5050509150506402540be400816102579190610625565b9250505090565b5f60099050600281610270919061069b565b90505f543410156102b6576040517f08c379a00000000000000000000000000000000000000000000000000000000081526004016102ad90610728565b60405180910390fd5b600133908060018154018082558091505060019003905f5260205f20015f9091909190916101000a81548173ffffffffffffffffffffffffffffffffffffffff021916908373ffffffffffffffffffffffffffffffffffffffff1602179055503460025f3373ffffffffffffffffffffffffffffffffffffffff1673ffffffffffffffffffffffffffffffffffffffff1681526020019081526020015f205461035f919061069b565b60025f3373ffffffffffffffffffffffffffffffffffffffff1673ffffffffffffffffffffffffffffffffffffffff1681526020019081526020015f208190555050565b5f5481565b5f5ffd5b5f819050919050565b6103be816103ac565b81146103c8575f5ffd5b50565b5f813590506103d9816103b5565b92915050565b5f602082840312156103f4576103f36103a8565b5b5f610401848285016103cb565b91505092915050565b610413816103ac565b82525050565b5f60208201905061042c5f83018461040a565b92915050565b7f4e487b71000000000000000000000000000000000000000000000000000000005f52601160045260245ffd5b5f610469826103ac565b9150610474836103ac565b9250828202610482816103ac565b9150828204841483151761049957610498610432565b5b5092915050565b7f4e487b71000000000000000000000000000000000000000000000000000000005f52601260045260245ffd5b5f6104d7826103ac565b91506104e2836103ac565b9250826104f2576104f16104a0565b5b828204905092915050565b5f8151905061050b816103b5565b92915050565b5f60208284031215610526576105256103a8565b5b5f610533848285016104fd565b91505092915050565b5f69ffffffffffffffffffff82169050919050565b61055a8161053c565b8114610564575f5ffd5b50565b5f8151905061057581610551565b92915050565b5f819050919050565b61058d8161057b565b8114610597575f5ffd5b50565b5f815190506105a881610584565b92915050565b5f5f5f5f5f60a086880312156105c7576105c66103a8565b5b5f6105d488828901610567565b95505060206105e58882890161059a565b94505060406105f6888289016104fd565b9350506060610607888289016104fd565b925050608061061888828901610567565b9150509295509295909350565b5f61062f8261057b565b915061063a8361057b565b92508282026106488161057b565b91507f800000000000000000000000000000000000000000000000000000000000000084145f8412161561067f5761067e610432565b5b828205841483151761069457610693610432565b5b5092915050565b5f6106a5826103ac565b91506106b0836103ac565b92508282019050808211156106c8576106c7610432565b5b92915050565b5f82825260208201905092915050565b7f596f75206d7573742073656e6420736f6d6520457468657200000000000000005f82015250565b5f6107126018836106ce565b915061071d826106de565b602082019050919050565b5f6020820190508181035f83015261073f81610706565b905091905056fea26469706673582212202709a83bb84d3c0e0c7e304d1e244ce09f713360b41fcbf968d5505acad45cf564736f6c634300081b0033",
			"opcodes": "PUSH1 0x80 PUSH1 0x40 MSTORE PUSH8 0x29A2241AF62C0000 PUSH0 DUP2 SWAP1 SSTORE POP PUSH2 0x77C DUP1 PUSH2 0x1F PUSH0 CODECOPY PUSH0 RETURN INVALID PUSH1 0x80 PUSH1 0x40 MSTORE PUSH1 0x4 CALLDATASIZE LT PUSH2 0x49 JUMPI PUSH0 CALLDATALOAD PUSH1 0xE0 SHR DUP1 PUSH4 0x47ABED7 EQ PUSH2 0x4D JUMPI DUP1 PUSH4 0xD8E6E2C EQ PUSH2 0x89 JUMPI DUP1 PUSH4 0x98D5FDCA EQ PUSH2 0x9F JUMPI DUP1 PUSH4 0xB6A324E0 EQ PUSH2 0xC9 JUMPI DUP1 PUSH4 0xEF75336E EQ PUSH2 0xD3 JUMPI JUMPDEST PUSH0 PUSH0 REVERT JUMPDEST CALLVALUE DUP1 ISZERO PUSH2 0x58 JUMPI PUSH0 PUSH0 REVERT JUMPDEST POP PUSH2 0x73 PUSH1 0x4 DUP1 CALLDATASIZE SUB DUP2 ADD SWAP1 PUSH2 0x6E SWAP2 SWAP1 PUSH2 0x3DF JUMP JUMPDEST PUSH2 0xFD JUMP JUMPDEST PUSH1 0x40 MLOAD PUSH2 0x80 SWAP2 SWAP1 PUSH2 0x419 JUMP JUMPDEST PUSH1 0x40 MLOAD DUP1 SWAP2 SUB SWAP1 RETURN JUMPDEST CALLVALUE DUP1 ISZERO PUSH2 0x94 JUMPI PUSH0 PUSH0 REVERT JUMPDEST POP PUSH2 0x9D PUSH2 0x130 JUMP JUMPDEST STOP JUMPDEST CALLVALUE DUP1 ISZERO PUSH2 0xAA JUMPI PUSH0 PUSH0 REVERT JUMPDEST POP PUSH2 0xB3 PUSH2 0x1B9 JUMP JUMPDEST PUSH1 0x40 MLOAD PUSH2 0xC0 SWAP2 SWAP1 PUSH2 0x419 JUMP JUMPDEST PUSH1 0x40 MLOAD DUP1 SWAP2 SUB SWAP1 RETURN JUMPDEST PUSH2 0xD1 PUSH2 0x25E JUMP JUMPDEST STOP JUMPDEST CALLVALUE DUP1 ISZERO PUSH2 0xDE JUMPI PUSH0 PUSH0 REVERT JUMPDEST POP PUSH2 0xE7 PUSH2 0x3A3 JUMP JUMPDEST PUSH1 0x40 MLOAD PUSH2 0xF4 SWAP2 SWAP1 PUSH2 0x419 JUMP JUMPDEST PUSH1 0x40 MLOAD DUP1 SWAP2 SUB SWAP1 RETURN JUMPDEST PUSH0 PUSH0 PUSH8 0xDE0B6B3A7640000 PUSH2 0x110 PUSH2 0x1B9 JUMP JUMPDEST DUP5 PUSH2 0x11B SWAP2 SWAP1 PUSH2 0x45F JUMP JUMPDEST PUSH2 0x125 SWAP2 SWAP1 PUSH2 0x4CD JUMP JUMPDEST SWAP1 POP DUP1 SWAP2 POP POP SWAP2 SWAP1 POP JUMP JUMPDEST PUSH0 PUSH20 0x694AA1769357215DE4FAC081BF1F309ADC325306 SWAP1 POP DUP1 PUSH20 0xFFFFFFFFFFFFFFFFFFFFFFFFFFFFFFFFFFFFFFFF AND PUSH4 0x54FD4D50 PUSH1 0x40 MLOAD DUP2 PUSH4 0xFFFFFFFF AND PUSH1 0xE0 SHL DUP2 MSTORE PUSH1 0x4 ADD PUSH1 0x20 PUSH1 0x40 MLOAD DUP1 DUP4 SUB DUP2 DUP7 GAS STATICCALL ISZERO DUP1 ISZERO PUSH2 0x191 JUMPI RETURNDATASIZE PUSH0 PUSH0 RETURNDATACOPY RETURNDATASIZE PUSH0 REVERT JUMPDEST POP POP POP POP PUSH1 0x40 MLOAD RETURNDATASIZE PUSH1 0x1F NOT PUSH1 0x1F DUP3 ADD AND DUP3 ADD DUP1 PUSH1 0x40 MSTORE POP DUP2 ADD SWAP1 PUSH2 0x1B5 SWAP2 SWAP1 PUSH2 0x511 JUMP JUMPDEST POP POP JUMP JUMPDEST PUSH0 PUSH0 PUSH20 0x694AA1769357215DE4FAC081BF1F309ADC325306 SWAP1 POP PUSH0 DUP2 PUSH20 0xFFFFFFFFFFFFFFFFFFFFFFFFFFFFFFFFFFFFFFFF AND PUSH4 0xFEAF968C PUSH1 0x40 MLOAD DUP2 PUSH4 0xFFFFFFFF AND PUSH1 0xE0 SHL DUP2 MSTORE PUSH1 0x4 ADD PUSH1 0xA0 PUSH1 0x40 MLOAD DUP1 DUP4 SUB DUP2 DUP7 GAS STATICCALL ISZERO DUP1 ISZERO PUSH2 0x21C JUMPI RETURNDATASIZE PUSH0 PUSH0 RETURNDATACOPY RETURNDATASIZE PUSH0 REVERT JUMPDEST POP POP POP POP PUSH1 0x40 MLOAD RETURNDATASIZE PUSH1 0x1F NOT PUSH1 0x1F DUP3 ADD AND DUP3 ADD DUP1 PUSH1 0x40 MSTORE POP DUP2 ADD SWAP1 PUSH2 0x240 SWAP2 SWAP1 PUSH2 0x5AE JUMP JUMPDEST POP POP POP SWAP2 POP POP PUSH5 0x2540BE400 DUP2 PUSH2 0x257 SWAP2 SWAP1 PUSH2 0x625 JUMP JUMPDEST SWAP3 POP POP POP SWAP1 JUMP JUMPDEST PUSH0 PUSH1 0x9 SWAP1 POP PUSH1 0x2 DUP2 PUSH2 0x270 SWAP2 SWAP1 PUSH2 0x69B JUMP JUMPDEST SWAP1 POP PUSH0 SLOAD CALLVALUE LT ISZERO PUSH2 0x2B6 JUMPI PUSH1 0x40 MLOAD PUSH32 0x8C379A000000000000000000000000000000000000000000000000000000000 DUP2 MSTORE PUSH1 0x4 ADD PUSH2 0x2AD SWAP1 PUSH2 0x728 JUMP JUMPDEST PUSH1 0x40 MLOAD DUP1 SWAP2 SUB SWAP1 REVERT JUMPDEST PUSH1 0x1 CALLER SWAP1 DUP1 PUSH1 0x1 DUP2 SLOAD ADD DUP1 DUP3 SSTORE DUP1 SWAP2 POP POP PUSH1 0x1 SWAP1 SUB SWAP1 PUSH0 MSTORE PUSH1 0x20 PUSH0 KECCAK256 ADD PUSH0 SWAP1 SWAP2 SWAP1 SWAP2 SWAP1 SWAP2 PUSH2 0x100 EXP DUP2 SLOAD DUP2 PUSH20 0xFFFFFFFFFFFFFFFFFFFFFFFFFFFFFFFFFFFFFFFF MUL NOT AND SWAP1 DUP4 PUSH20 0xFFFFFFFFFFFFFFFFFFFFFFFFFFFFFFFFFFFFFFFF AND MUL OR SWAP1 SSTORE POP CALLVALUE PUSH1 0x2 PUSH0 CALLER PUSH20 0xFFFFFFFFFFFFFFFFFFFFFFFFFFFFFFFFFFFFFFFF AND PUSH20 0xFFFFFFFFFFFFFFFFFFFFFFFFFFFFFFFFFFFFFFFF AND DUP2 MSTORE PUSH1 0x20 ADD SWAP1 DUP2 MSTORE PUSH1 0x20 ADD PUSH0 KECCAK256 SLOAD PUSH2 0x35F SWAP2 SWAP1 PUSH2 0x69B JUMP JUMPDEST PUSH1 0x2 PUSH0 CALLER PUSH20 0xFFFFFFFFFFFFFFFFFFFFFFFFFFFFFFFFFFFFFFFF AND PUSH20 0xFFFFFFFFFFFFFFFFFFFFFFFFFFFFFFFFFFFFFFFF AND DUP2 MSTORE PUSH1 0x20 ADD SWAP1 DUP2 MSTORE PUSH1 0x20 ADD PUSH0 KECCAK256 DUP2 SWAP1 SSTORE POP POP JUMP JUMPDEST PUSH0 SLOAD DUP2 JUMP JUMPDEST PUSH0 PUSH0 REVERT JUMPDEST PUSH0 DUP2 SWAP1 POP SWAP2 SWAP1 POP JUMP JUMPDEST PUSH2 0x3BE DUP2 PUSH2 0x3AC JUMP JUMPDEST DUP2 EQ PUSH2 0x3C8 JUMPI PUSH0 PUSH0 REVERT JUMPDEST POP JUMP JUMPDEST PUSH0 DUP2 CALLDATALOAD SWAP1 POP PUSH2 0x3D9 DUP2 PUSH2 0x3B5 JUMP JUMPDEST SWAP3 SWAP2 POP POP JUMP JUMPDEST PUSH0 PUSH1 0x20 DUP3 DUP5 SUB SLT ISZERO PUSH2 0x3F4 JUMPI PUSH2 0x3F3 PUSH2 0x3A8 JUMP JUMPDEST JUMPDEST PUSH0 PUSH2 0x401 DUP5 DUP3 DUP6 ADD PUSH2 0x3CB JUMP JUMPDEST SWAP2 POP POP SWAP3 SWAP2 POP POP JUMP JUMPDEST PUSH2 0x413 DUP2 PUSH2 0x3AC JUMP JUMPDEST DUP3 MSTORE POP POP JUMP JUMPDEST PUSH0 PUSH1 0x20 DUP3 ADD SWAP1 POP PUSH2 0x42C PUSH0 DUP4 ADD DUP5 PUSH2 0x40A JUMP JUMPDEST SWAP3 SWAP2 POP POP JUMP JUMPDEST PUSH32 0x4E487B7100000000000000000000000000000000000000000000000000000000 PUSH0 MSTORE PUSH1 0x11 PUSH1 0x4 MSTORE PUSH1 0x24 PUSH0 REVERT JUMPDEST PUSH0 PUSH2 0x469 DUP3 PUSH2 0x3AC JUMP JUMPDEST SWAP2 POP PUSH2 0x474 DUP4 PUSH2 0x3AC JUMP JUMPDEST SWAP3 POP DUP3 DUP3 MUL PUSH2 0x482 DUP2 PUSH2 0x3AC JUMP JUMPDEST SWAP2 POP DUP3 DUP3 DIV DUP5 EQ DUP4 ISZERO OR PUSH2 0x499 JUMPI PUSH2 0x498 PUSH2 0x432 JUMP JUMPDEST JUMPDEST POP SWAP3 SWAP2 POP POP JUMP JUMPDEST PUSH32 0x4E487B7100000000000000000000000000000000000000000000000000000000 PUSH0 MSTORE PUSH1 0x12 PUSH1 0x4 MSTORE PUSH1 0x24 PUSH0 REVERT JUMPDEST PUSH0 PUSH2 0x4D7 DUP3 PUSH2 0x3AC JUMP JUMPDEST SWAP2 POP PUSH2 0x4E2 DUP4 PUSH2 0x3AC JUMP JUMPDEST SWAP3 POP DUP3 PUSH2 0x4F2 JUMPI PUSH2 0x4F1 PUSH2 0x4A0 JUMP JUMPDEST JUMPDEST DUP3 DUP3 DIV SWAP1 POP SWAP3 SWAP2 POP POP JUMP JUMPDEST PUSH0 DUP2 MLOAD SWAP1 POP PUSH2 0x50B DUP2 PUSH2 0x3B5 JUMP JUMPDEST SWAP3 SWAP2 POP POP JUMP JUMPDEST PUSH0 PUSH1 0x20 DUP3 DUP5 SUB SLT ISZERO PUSH2 0x526 JUMPI PUSH2 0x525 PUSH2 0x3A8 JUMP JUMPDEST JUMPDEST PUSH0 PUSH2 0x533 DUP5 DUP3 DUP6 ADD PUSH2 0x4FD JUMP JUMPDEST SWAP2 POP POP SWAP3 SWAP2 POP POP JUMP JUMPDEST PUSH0 PUSH10 0xFFFFFFFFFFFFFFFFFFFF DUP3 AND SWAP1 POP SWAP2 SWAP1 POP JUMP JUMPDEST PUSH2 0x55A DUP2 PUSH2 0x53C JUMP JUMPDEST DUP2 EQ PUSH2 0x564 JUMPI PUSH0 PUSH0 REVERT JUMPDEST POP JUMP JUMPDEST PUSH0 DUP2 MLOAD SWAP1 POP PUSH2 0x575 DUP2 PUSH2 0x551 JUMP JUMPDEST SWAP3 SWAP2 POP POP JUMP JUMPDEST PUSH0 DUP2 SWAP1 POP SWAP2 SWAP1 POP JUMP JUMPDEST PUSH2 0x58D DUP2 PUSH2 0x57B JUMP JUMPDEST DUP2 EQ PUSH2 0x597 JUMPI PUSH0 PUSH0 REVERT JUMPDEST POP JUMP JUMPDEST PUSH0 DUP2 MLOAD SWAP1 POP PUSH2 0x5A8 DUP2 PUSH2 0x584 JUMP JUMPDEST SWAP3 SWAP2 POP POP JUMP JUMPDEST PUSH0 PUSH0 PUSH0 PUSH0 PUSH0 PUSH1 0xA0 DUP7 DUP9 SUB SLT ISZERO PUSH2 0x5C7 JUMPI PUSH2 0x5C6 PUSH2 0x3A8 JUMP JUMPDEST JUMPDEST PUSH0 PUSH2 0x5D4 DUP9 DUP3 DUP10 ADD PUSH2 0x567 JUMP JUMPDEST SWAP6 POP POP PUSH1 0x20 PUSH2 0x5E5 DUP9 DUP3 DUP10 ADD PUSH2 0x59A JUMP JUMPDEST SWAP5 POP POP PUSH1 0x40 PUSH2 0x5F6 DUP9 DUP3 DUP10 ADD PUSH2 0x4FD JUMP JUMPDEST SWAP4 POP POP PUSH1 0x60 PUSH2 0x607 DUP9 DUP3 DUP10 ADD PUSH2 0x4FD JUMP JUMPDEST SWAP3 POP POP PUSH1 0x80 PUSH2 0x618 DUP9 DUP3 DUP10 ADD PUSH2 0x567 JUMP JUMPDEST SWAP2 POP POP SWAP3 SWAP6 POP SWAP3 SWAP6 SWAP1 SWAP4 POP JUMP JUMPDEST PUSH0 PUSH2 0x62F DUP3 PUSH2 0x57B JUMP JUMPDEST SWAP2 POP PUSH2 0x63A DUP4 PUSH2 0x57B JUMP JUMPDEST SWAP3 POP DUP3 DUP3 MUL PUSH2 0x648 DUP2 PUSH2 0x57B JUMP JUMPDEST SWAP2 POP PUSH32 0x8000000000000000000000000000000000000000000000000000000000000000 DUP5 EQ PUSH0 DUP5 SLT AND ISZERO PUSH2 0x67F JUMPI PUSH2 0x67E PUSH2 0x432 JUMP JUMPDEST JUMPDEST DUP3 DUP3 SDIV DUP5 EQ DUP4 ISZERO OR PUSH2 0x694 JUMPI PUSH2 0x693 PUSH2 0x432 JUMP JUMPDEST JUMPDEST POP SWAP3 SWAP2 POP POP JUMP JUMPDEST PUSH0 PUSH2 0x6A5 DUP3 PUSH2 0x3AC JUMP JUMPDEST SWAP2 POP PUSH2 0x6B0 DUP4 PUSH2 0x3AC JUMP JUMPDEST SWAP3 POP DUP3 DUP3 ADD SWAP1 POP DUP1 DUP3 GT ISZERO PUSH2 0x6C8 JUMPI PUSH2 0x6C7 PUSH2 0x432 JUMP JUMPDEST JUMPDEST SWAP3 SWAP2 POP POP JUMP JUMPDEST PUSH0 DUP3 DUP3 MSTORE PUSH1 0x20 DUP3 ADD SWAP1 POP SWAP3 SWAP2 POP POP JUMP JUMPDEST PUSH32 0x596F75206D7573742073656E6420736F6D652045746865720000000000000000 PUSH0 DUP3 ADD MSTORE POP JUMP JUMPDEST PUSH0 PUSH2 0x712 PUSH1 0x18 DUP4 PUSH2 0x6CE JUMP JUMPDEST SWAP2 POP PUSH2 0x71D DUP3 PUSH2 0x6DE JUMP JUMPDEST PUSH1 0x20 DUP3 ADD SWAP1 POP SWAP2 SWAP1 POP JUMP JUMPDEST PUSH0 PUSH1 0x20 DUP3 ADD SWAP1 POP DUP2 DUP2 SUB PUSH0 DUP4 ADD MSTORE PUSH2 0x73F DUP2 PUSH2 0x706 JUMP JUMPDEST SWAP1 POP SWAP2 SWAP1 POP JUMP INVALID LOG2 PUSH5 0x6970667358 0x22 SLT KECCAK256 0x27 MULMOD 0xA8 EXTCODESIZE 0xB8 0x4D EXTCODECOPY 0xE 0xC PUSH31 0x304D1E244CE09F713360B41FCBF968D5505ACAD45CF564736F6C634300081B STOP CALLER "
		},
		"gasEstimates": {
			"creation": {
				"codeDepositCost": "383200",
				"executionCost": "22505",
				"totalCost": "405705"
			},
			"external": {
				"fundAmounts()": "2490",
				"fundMe()": "infinite",
				"getConversion(uint256)": "infinite",
				"getPrice()": "infinite",
				"getVersion()": "infinite"
			}
		},
		"methodIdentifiers": {
			"fundAmounts()": "ef75336e",
			"fundMe()": "b6a324e0",
			"getConversion(uint256)": "047abed7",
			"getPrice()": "98d5fdca",
			"getVersion()": "0d8e6e2c"
		}
	},
	"abi": [
		{
			"inputs": [],
			"stateMutability": "payable",
			"type": "constructor"
		},
		{
			"inputs": [],
			"name": "fundAmounts",
			"outputs": [
				{
					"internalType": "uint256",
					"name": "",
					"type": "uint256"
				}
			],
			"stateMutability": "view",
			"type": "function"
		},
		{
			"inputs": [],
			"name": "fundMe",
			"outputs": [],
			"stateMutability": "payable",
			"type": "function"
		},
		{
			"inputs": [
				{
					"internalType": "uint256",
					"name": "ethAmount",
					"type": "uint256"
				}
			],
			"name": "getConversion",
			"outputs": [
				{
					"internalType": "uint256",
					"name": "",
					"type": "uint256"
				}
			],
			"stateMutability": "view",
			"type": "function"
		},
		{
			"inputs": [],
			"name": "getPrice",
			"outputs": [
				{
					"internalType": "uint256",
					"name": "Price",
					"type": "uint256"
				}
			],
			"stateMutability": "view",
			"type": "function"
		},
		{
			"inputs": [],
			"name": "getVersion",
			"outputs": [],
			"stateMutability": "view",
			"type": "function"
		}
	]
}