{
	"data": {
		"bytecode": {
			"linkReferences": {},
			"object": "61053061004d600b8282823980515f1a6073146041577f4e487b71000000000000000000000000000000000000000000000000000000005f525f60045260245ffd5b305f52607381538281f3fe730000000000000000000000000000000000000000301460806040526004361061004a575f3560e01c8063047abed71461004e5780630d8e6e2c1461007e57806398d5fdca14610088575b5f5ffd5b6100686004803603810190610063919061023e565b6100a6565b6040516100759190610278565b60405180910390f35b6100866100d9565b005b610090610162565b60405161009d9190610278565b60405180910390f35b5f5f670de0b6b3a76400006100b9610162565b846100c491906102be565b6100ce919061032c565b905080915050919050565b5f73694aa1769357215de4fac081bf1f309adc32530690508073ffffffffffffffffffffffffffffffffffffffff166354fd4d506040518163ffffffff1660e01b8152600401602060405180830381865afa15801561013a573d5f5f3e3d5ffd5b505050506040513d601f19601f8201168201806040525081019061015e9190610370565b5050565b5f5f73694aa1769357215de4fac081bf1f309adc32530690505f8173ffffffffffffffffffffffffffffffffffffffff1663feaf968c6040518163ffffffff1660e01b815260040160a060405180830381865afa1580156101c5573d5f5f3e3d5ffd5b505050506040513d601f19601f820116820180604052508101906101e9919061040d565b5050509150506402540be400816102009190610484565b9250505090565b5f5ffd5b5f819050919050565b61021d8161020b565b8114610227575f5ffd5b50565b5f8135905061023881610214565b92915050565b5f6020828403121561025357610252610207565b5b5f6102608482850161022a565b91505092915050565b6102728161020b565b82525050565b5f60208201905061028b5f830184610269565b92915050565b7f4e487b71000000000000000000000000000000000000000000000000000000005f52601160045260245ffd5b5f6102c88261020b565b91506102d38361020b565b92508282026102e18161020b565b915082820484148315176102f8576102f7610291565b5b5092915050565b7f4e487b71000000000000000000000000000000000000000000000000000000005f52601260045260245ffd5b5f6103368261020b565b91506103418361020b565b925082610351576103506102ff565b5b828204905092915050565b5f8151905061036a81610214565b92915050565b5f6020828403121561038557610384610207565b5b5f6103928482850161035c565b91505092915050565b5f69ffffffffffffffffffff82169050919050565b6103b98161039b565b81146103c3575f5ffd5b50565b5f815190506103d4816103b0565b92915050565b5f819050919050565b6103ec816103da565b81146103f6575f5ffd5b50565b5f81519050610407816103e3565b92915050565b5f5f5f5f5f60a0868803121561042657610425610207565b5b5f610433888289016103c6565b9550506020610444888289016103f9565b94505060406104558882890161035c565b93505060606104668882890161035c565b9250506080610477888289016103c6565b9150509295509295909350565b5f61048e826103da565b9150610499836103da565b92508282026104a7816103da565b91507f800000000000000000000000000000000000000000000000000000000000000084145f841216156104de576104dd610291565b5b82820584148315176104f3576104f2610291565b5b509291505056fea26469706673582212207d415d130f47a2eb3d8c33f9b4f53d2c8637349887718891fa5fb5950febd41a64736f6c634300081b0033",
			"opcodes": "PUSH2 0x530 PUSH2 0x4D PUSH1 0xB DUP3 DUP3 DUP3 CODECOPY DUP1 MLOAD PUSH0 BYTE PUSH1 0x73 EQ PUSH1 0x41 JUMPI PUSH32 0x4E487B7100000000000000000000000000000000000000000000000000000000 PUSH0 MSTORE PUSH0 PUSH1 0x4 MSTORE PUSH1 0x24 PUSH0 REVERT JUMPDEST ADDRESS PUSH0 MSTORE PUSH1 0x73 DUP2 MSTORE8 DUP3 DUP2 RETURN INVALID PUSH20 0x0 ADDRESS EQ PUSH1 0x80 PUSH1 0x40 MSTORE PUSH1 0x4 CALLDATASIZE LT PUSH2 0x4A JUMPI PUSH0 CALLDATALOAD PUSH1 0xE0 SHR DUP1 PUSH4 0x47ABED7 EQ PUSH2 0x4E JUMPI DUP1 PUSH4 0xD8E6E2C EQ PUSH2 0x7E JUMPI DUP1 PUSH4 0x98D5FDCA EQ PUSH2 0x88 JUMPI JUMPDEST PUSH0 PUSH0 REVERT JUMPDEST PUSH2 0x68 PUSH1 0x4 DUP1 CALLDATASIZE SUB DUP2 ADD SWAP1 PUSH2 0x63 SWAP2 SWAP1 PUSH2 0x23E JUMP JUMPDEST PUSH2 0xA6 JUMP JUMPDEST PUSH1 0x40 MLOAD PUSH2 0x75 SWAP2 SWAP1 PUSH2 0x278 JUMP JUMPDEST PUSH1 0x40 MLOAD DUP1 SWAP2 SUB SWAP1 RETURN JUMPDEST PUSH2 0x86 PUSH2 0xD9 JUMP JUMPDEST STOP JUMPDEST PUSH2 0x90 PUSH2 0x162 JUMP JUMPDEST PUSH1 0x40 MLOAD PUSH2 0x9D SWAP2 SWAP1 PUSH2 0x278 JUMP JUMPDEST PUSH1 0x40 MLOAD DUP1 SWAP2 SUB SWAP1 RETURN JUMPDEST PUSH0 PUSH0 PUSH8 0xDE0B6B3A7640000 PUSH2 0xB9 PUSH2 0x162 JUMP JUMPDEST DUP5 PUSH2 0xC4 SWAP2 SWAP1 PUSH2 0x2BE JUMP JUMPDEST PUSH2 0xCE SWAP2 SWAP1 PUSH2 0x32C JUMP JUMPDEST SWAP1 POP DUP1 SWAP2 POP POP SWAP2 SWAP1 POP JUMP JUMPDEST PUSH0 PUSH20 0x694AA1769357215DE4FAC081BF1F309ADC325306 SWAP1 POP DUP1 PUSH20 0xFFFFFFFFFFFFFFFFFFFFFFFFFFFFFFFFFFFFFFFF AND PUSH4 0x54FD4D50 PUSH1 0x40 MLOAD DUP2 PUSH4 0xFFFFFFFF AND PUSH1 0xE0 SHL DUP2 MSTORE PUSH1 0x4 ADD PUSH1 0x20 PUSH1 0x40 MLOAD DUP1 DUP4 SUB DUP2 DUP7 GAS STATICCALL ISZERO DUP1 ISZERO PUSH2 0x13A JUMPI RETURNDATASIZE PUSH0 PUSH0 RETURNDATACOPY RETURNDATASIZE PUSH0 REVERT JUMPDEST POP POP POP POP PUSH1 0x40 MLOAD RETURNDATASIZE PUSH1 0x1F NOT PUSH1 0x1F DUP3 ADD AND DUP3 ADD DUP1 PUSH1 0x40 MSTORE POP DUP2 ADD SWAP1 PUSH2 0x15E SWAP2 SWAP1 PUSH2 0x370 JUMP JUMPDEST POP POP JUMP JUMPDEST PUSH0 PUSH0 PUSH20 0x694AA1769357215DE4FAC081BF1F309ADC325306 SWAP1 POP PUSH0 DUP2 PUSH20 0xFFFFFFFFFFFFFFFFFFFFFFFFFFFFFFFFFFFFFFFF AND PUSH4 0xFEAF968C PUSH1 0x40 MLOAD DUP2 PUSH4 0xFFFFFFFF AND PUSH1 0xE0 SHL DUP2 MSTORE PUSH1 0x4 ADD PUSH1 0xA0 PUSH1 0x40 MLOAD DUP1 DUP4 SUB DUP2 DUP7 GAS STATICCALL ISZERO DUP1 ISZERO PUSH2 0x1C5 JUMPI RETURNDATASIZE PUSH0 PUSH0 RETURNDATACOPY RETURNDATASIZE PUSH0 REVERT JUMPDEST POP POP POP POP PUSH1 0x40 MLOAD RETURNDATASIZE PUSH1 0x1F NOT PUSH1 0x1F DUP3 ADD AND DUP3 ADD DUP1 PUSH1 0x40 MSTORE POP DUP2 ADD SWAP1 PUSH2 0x1E9 SWAP2 SWAP1 PUSH2 0x40D JUMP JUMPDEST POP POP POP SWAP2 POP POP PUSH5 0x2540BE400 DUP2 PUSH2 0x200 SWAP2 SWAP1 PUSH2 0x484 JUMP JUMPDEST SWAP3 POP POP POP SWAP1 JUMP JUMPDEST PUSH0 PUSH0 REVERT JUMPDEST PUSH0 DUP2 SWAP1 POP SWAP2 SWAP1 POP JUMP JUMPDEST PUSH2 0x21D DUP2 PUSH2 0x20B JUMP JUMPDEST DUP2 EQ PUSH2 0x227 JUMPI PUSH0 PUSH0 REVERT JUMPDEST POP JUMP JUMPDEST PUSH0 DUP2 CALLDATALOAD SWAP1 POP PUSH2 0x238 DUP2 PUSH2 0x214 JUMP JUMPDEST SWAP3 SWAP2 POP POP JUMP JUMPDEST PUSH0 PUSH1 0x20 DUP3 DUP5 SUB SLT ISZERO PUSH2 0x253 JUMPI PUSH2 0x252 PUSH2 0x207 JUMP JUMPDEST JUMPDEST PUSH0 PUSH2 0x260 DUP5 DUP3 DUP6 ADD PUSH2 0x22A JUMP JUMPDEST SWAP2 POP POP SWAP3 SWAP2 POP POP JUMP JUMPDEST PUSH2 0x272 DUP2 PUSH2 0x20B JUMP JUMPDEST DUP3 MSTORE POP POP JUMP JUMPDEST PUSH0 PUSH1 0x20 DUP3 ADD SWAP1 POP PUSH2 0x28B PUSH0 DUP4 ADD DUP5 PUSH2 0x269 JUMP JUMPDEST SWAP3 SWAP2 POP POP JUMP JUMPDEST PUSH32 0x4E487B7100000000000000000000000000000000000000000000000000000000 PUSH0 MSTORE PUSH1 0x11 PUSH1 0x4 MSTORE PUSH1 0x24 PUSH0 REVERT JUMPDEST PUSH0 PUSH2 0x2C8 DUP3 PUSH2 0x20B JUMP JUMPDEST SWAP2 POP PUSH2 0x2D3 DUP4 PUSH2 0x20B JUMP JUMPDEST SWAP3 POP DUP3 DUP3 MUL PUSH2 0x2E1 DUP2 PUSH2 0x20B JUMP JUMPDEST SWAP2 POP DUP3 DUP3 DIV DUP5 EQ DUP4 ISZERO OR PUSH2 0x2F8 JUMPI PUSH2 0x2F7 PUSH2 0x291 JUMP JUMPDEST JUMPDEST POP SWAP3 SWAP2 POP POP JUMP JUMPDEST PUSH32 0x4E487B7100000000000000000000000000000000000000000000000000000000 PUSH0 MSTORE PUSH1 0x12 PUSH1 0x4 MSTORE PUSH1 0x24 PUSH0 REVERT JUMPDEST PUSH0 PUSH2 0x336 DUP3 PUSH2 0x20B JUMP JUMPDEST SWAP2 POP PUSH2 0x341 DUP4 PUSH2 0x20B JUMP JUMPDEST SWAP3 POP DUP3 PUSH2 0x351 JUMPI PUSH2 0x350 PUSH2 0x2FF JUMP JUMPDEST JUMPDEST DUP3 DUP3 DIV SWAP1 POP SWAP3 SWAP2 POP POP JUMP JUMPDEST PUSH0 DUP2 MLOAD SWAP1 POP PUSH2 0x36A DUP2 PUSH2 0x214 JUMP JUMPDEST SWAP3 SWAP2 POP POP JUMP JUMPDEST PUSH0 PUSH1 0x20 DUP3 DUP5 SUB SLT ISZERO PUSH2 0x385 JUMPI PUSH2 0x384 PUSH2 0x207 JUMP JUMPDEST JUMPDEST PUSH0 PUSH2 0x392 DUP5 DUP3 DUP6 ADD PUSH2 0x35C JUMP JUMPDEST SWAP2 POP POP SWAP3 SWAP2 POP POP JUMP JUMPDEST PUSH0 PUSH10 0xFFFFFFFFFFFFFFFFFFFF DUP3 AND SWAP1 POP SWAP2 SWAP1 POP JUMP JUMPDEST PUSH2 0x3B9 DUP2 PUSH2 0x39B JUMP JUMPDEST DUP2 EQ PUSH2 0x3C3 JUMPI PUSH0 PUSH0 REVERT JUMPDEST POP JUMP JUMPDEST PUSH0 DUP2 MLOAD SWAP1 POP PUSH2 0x3D4 DUP2 PUSH2 0x3B0 JUMP JUMPDEST SWAP3 SWAP2 POP POP JUMP JUMPDEST PUSH0 DUP2 SWAP1 POP SWAP2 SWAP1 POP JUMP JUMPDEST PUSH2 0x3EC DUP2 PUSH2 0x3DA JUMP JUMPDEST DUP2 EQ PUSH2 0x3F6 JUMPI PUSH0 PUSH0 REVERT JUMPDEST POP JUMP JUMPDEST PUSH0 DUP2 MLOAD SWAP1 POP PUSH2 0x407 DUP2 PUSH2 0x3E3 JUMP JUMPDEST SWAP3 SWAP2 POP POP JUMP JUMPDEST PUSH0 PUSH0 PUSH0 PUSH0 PUSH0 PUSH1 0xA0 DUP7 DUP9 SUB SLT ISZERO PUSH2 0x426 JUMPI PUSH2 0x425 PUSH2 0x207 JUMP JUMPDEST JUMPDEST PUSH0 PUSH2 0x433 DUP9 DUP3 DUP10 ADD PUSH2 0x3C6 JUMP JUMPDEST SWAP6 POP POP PUSH1 0x20 PUSH2 0x444 DUP9 DUP3 DUP10 ADD PUSH2 0x3F9 JUMP JUMPDEST SWAP5 POP POP PUSH1 0x40 PUSH2 0x455 DUP9 DUP3 DUP10 ADD PUSH2 0x35C JUMP JUMPDEST SWAP4 POP POP PUSH1 0x60 PUSH2 0x466 DUP9 DUP3 DUP10 ADD PUSH2 0x35C JUMP JUMPDEST SWAP3 POP POP PUSH1 0x80 PUSH2 0x477 DUP9 DUP3 DUP10 ADD PUSH2 0x3C6 JUMP JUMPDEST SWAP2 POP POP SWAP3 SWAP6 POP SWAP3 SWAP6 SWAP1 SWAP4 POP JUMP JUMPDEST PUSH0 PUSH2 0x48E DUP3 PUSH2 0x3DA JUMP JUMPDEST SWAP2 POP PUSH2 0x499 DUP4 PUSH2 0x3DA JUMP JUMPDEST SWAP3 POP DUP3 DUP3 MUL PUSH2 0x4A7 DUP2 PUSH2 0x3DA JUMP JUMPDEST SWAP2 POP PUSH32 0x8000000000000000000000000000000000000000000000000000000000000000 DUP5 EQ PUSH0 DUP5 SLT AND ISZERO PUSH2 0x4DE JUMPI PUSH2 0x4DD PUSH2 0x291 JUMP JUMPDEST JUMPDEST DUP3 DUP3 SDIV DUP5 EQ DUP4 ISZERO OR PUSH2 0x4F3 JUMPI PUSH2 0x4F2 PUSH2 0x291 JUMP JUMPDEST JUMPDEST POP SWAP3 SWAP2 POP POP JUMP INVALID LOG2 PUSH5 0x6970667358 0x22 SLT KECCAK256 PUSH30 0x415D130F47A2EB3D8C33F9B4F53D2C8637349887718891FA5FB5950FEBD4 BYTE PUSH5 0x736F6C6343 STOP ADDMOD SHL STOP CALLER "
		},
		"gasEstimates": {
			"creation": {
				"codeDepositCost": "265600",
				"executionCost": "329",
				"totalCost": "265929"
			},
			"external": {
				"getConversion(uint256)": "infinite",
				"getPrice()": "infinite",
				"getVersion()": "infinite"
			}
		},
		"methodIdentifiers": {
			"getConversion(uint256)": "047abed7",
			"getPrice()": "98d5fdca",
			"getVersion()": "0d8e6e2c"
		}
	},
	"abi": [
		{
			"inputs": [
				{
					"internalType": "uint256",
					"name": "ethAmount",
					"type": "uint256"
				}
			],
			"name": "getConversion",
			"outputs": [
				{
					"internalType": "uint256",
					"name": "",
					"type": "uint256"
				}
			],
			"stateMutability": "view",
			"type": "function"
		},
		{
			"inputs": [],
			"name": "getPrice",
			"outputs": [
				{
					"internalType": "uint256",
					"name": "Price",
					"type": "uint256"
				}
			],
			"stateMutability": "view",
			"type": "function"
		},
		{
			"inputs": [],
			"name": "getVersion",
			"outputs": [],
			"stateMutability": "view",
			"type": "function"
		}
	]
}