{
	"data": {
		"bytecode": {
			"linkReferences": {},
			"object": "6080604052348015600e575f5ffd5b50605f80601a5f395ff3fe608060405260043610601b575f3560e01c8063b6a324e014601f575b5f5ffd5b60256027565b005b56fea2646970667358221220272fd19d949359a872da42f32764e9579e57a4c788addc3c9d55aaddfe8bda1564736f6c634300081b0033",
			"opcodes": "PUSH1 0x80 PUSH1 0x40 MSTORE CALLVALUE DUP1 ISZERO PUSH1 0xE JUMPI PUSH0 PUSH0 REVERT JUMPDEST POP PUSH1 0x5F DUP1 PUSH1 0x1A PUSH0 CODECOPY PUSH0 RETURN INVALID PUSH1 0x80 PUSH1 0x40 MSTORE PUSH1 0x4 CALLDATASIZE LT PUSH1 0x1B JUMPI PUSH0 CALLDATALOAD PUSH1 0xE0 SHR DUP1 PUSH4 0xB6A324E0 EQ PUSH1 0x1F JUMPI JUMPDEST PUSH0 PUSH0 REVERT JUMPDEST PUSH1 0x25 PUSH1 0x27 JUMP JUMPDEST STOP JUMPDEST JUMP INVALID LOG2 PUSH5 0x6970667358 0x22 SLT KECCAK256 0x27 0x2F 0xD1 SWAP14 SWAP5 SWAP4 MSIZE 0xA8 PUSH19 0xDA42F32764E9579E57A4C788ADDC3C9D55AADD INVALID DUP12 0xDA ISZERO PUSH5 0x736F6C6343 STOP ADDMOD SHL STOP CALLER "
		},
		"deployedBytecode": {
			"immutableReferences": {},
			"linkReferences": {},
			"object": "608060405260043610601b575f3560e01c8063b6a324e014601f575b5f5ffd5b60256027565b005b56fea2646970667358221220272fd19d949359a872da42f32764e9579e57a4c788addc3c9d55aaddfe8bda1564736f6c634300081b0033",
			"opcodes": "PUSH1 0x80 PUSH1 0x40 MSTORE PUSH1 0x4 CALLDATASIZE LT PUSH1 0x1B JUMPI PUSH0 CALLDATALOAD PUSH1 0xE0 SHR DUP1 PUSH4 0xB6A324E0 EQ PUSH1 0x1F JUMPI JUMPDEST PUSH0 PUSH0 REVERT JUMPDEST PUSH1 0x25 PUSH1 0x27 JUMP JUMPDEST STOP JUMPDEST JUMP INVALID LOG2 PUSH5 0x6970667358 0x22 SLT KECCAK256 0x27 0x2F 0xD1 SWAP14 SWAP5 SWAP4 MSIZE 0xA8 PUSH19 0xDA42F32764E9579E57A4C788ADDC3C9D55AADD INVALID DUP12 0xDA ISZERO PUSH5 0x736F6C6343 STOP ADDMOD SHL STOP CALLER "
		},
		"gasEstimates": {
			"creation": {
				"codeDepositCost": "19000",
				"executionCost": "67",
				"totalCost": "19067"
			},
			"external": {
				"fundMe()": "97"
			}
		},
		"methodIdentifiers": {
			"fundMe()": "b6a324e0"
		}
	},
	"abi": [
		{
			"inputs": [],
			"name": "fundMe",
			"outputs": [],
			"stateMutability": "payable",
			"type": "function"
		}
	]
}