{
	"FundMe/FundMe.sol": {
		"FundMe": {
			"abi": [
				{
					"inputs": [],
					"stateMutability": "payable",
					"type": "constructor"
				},
				{
					"inputs": [],
					"name": "fundAmounts",
					"outputs": [
						{
							"internalType": "uint256",
							"name": "",
							"type": "uint256"
						}
					],
					"stateMutability": "view",
					"type": "function"
				},
				{
					"inputs": [],
					"name": "fundMe",
					"outputs": [],
					"stateMutability": "payable",
					"type": "function"
				}
			],
			"devdoc": {
				"kind": "dev",
				"methods": {},
				"version": 1
			},
			"evm": {
				"assembly": "    /* \"FundMe/FundMe.sol\":173:605  contract FundMe {... */\n  mstore(0x40, 0x80)\n    /* \"FundMe/FundMe.sol\":319:320  3 */\n  0x03\n    /* \"FundMe/FundMe.sol\":305:316  fundAmounts */\n  0x00\n    /* \"FundMe/FundMe.sol\":305:320  fundAmounts = 3 */\n  dup2\n  swap1\n  sstore\n  pop\n    /* \"FundMe/FundMe.sol\":173:605  contract FundMe {... */\n  dataSize(sub_0)\n  dup1\n  dataOffset(sub_0)\n  0x00\n  codecopy\n  0x00\n  return\nstop\n\nsub_0: assembly {\n        /* \"FundMe/FundMe.sol\":173:605  contract FundMe {... */\n      mstore(0x40, 0x80)\n      jumpi(tag_1, lt(calldatasize, 0x04))\n      shr(0xe0, calldataload(0x00))\n      dup1\n      0xb6a324e0\n      eq\n      tag_2\n      jumpi\n      dup1\n      0xef75336e\n      eq\n      tag_3\n      jumpi\n    tag_1:\n      revert(0x00, 0x00)\n        /* \"FundMe/FundMe.sol\":336:602  function fundMe() public payable {... */\n    tag_2:\n      tag_4\n      tag_5\n      jump\t// in\n    tag_4:\n      stop\n        /* \"FundMe/FundMe.sol\":196:222  uint256 public fundAmounts */\n    tag_3:\n      callvalue\n      dup1\n      iszero\n      tag_6\n      jumpi\n      revert(0x00, 0x00)\n    tag_6:\n      pop\n      tag_7\n      tag_8\n      jump\t// in\n    tag_7:\n      mload(0x40)\n      tag_9\n      swap2\n      swap1\n      tag_10\n      jump\t// in\n    tag_9:\n      mload(0x40)\n      dup1\n      swap2\n      sub\n      swap1\n      return\n        /* \"FundMe/FundMe.sol\":336:602  function fundMe() public payable {... */\n    tag_5:\n        /* \"FundMe/FundMe.sol\":419:438  uint256 priceOfThat */\n      0x00\n        /* \"FundMe/FundMe.sol\":439:440  9 */\n      0x09\n        /* \"FundMe/FundMe.sol\":419:440  uint256 priceOfThat=9 */\n      swap1\n      pop\n        /* \"FundMe/FundMe.sol\":466:467  2 */\n      0x02\n        /* \"FundMe/FundMe.sol\":452:467  priceOfThat+= 2 */\n      dup2\n      tag_12\n      swap2\n      swap1\n      tag_13\n      jump\t// in\n    tag_12:\n      swap1\n      pop\n        /* \"FundMe/FundMe.sol\":554:565  fundAmounts */\n      sload(0x00)\n        /* \"FundMe/FundMe.sol\":541:550  msg.value */\n      callvalue\n        /* \"FundMe/FundMe.sol\":541:565  msg.value >= fundAmounts */\n      lt\n      iszero\n        /* \"FundMe/FundMe.sol\":533:594  require(msg.value >= fundAmounts ,\"You must send some Ether\") */\n      tag_14\n      jumpi\n      mload(0x40)\n      0x08c379a000000000000000000000000000000000000000000000000000000000\n      dup2\n      mstore\n      0x04\n      add\n      tag_15\n      swap1\n      tag_16\n      jump\t// in\n    tag_15:\n      mload(0x40)\n      dup1\n      swap2\n      sub\n      swap1\n      revert\n    tag_14:\n        /* \"FundMe/FundMe.sol\":369:602  {... */\n      pop\n        /* \"FundMe/FundMe.sol\":336:602  function fundMe() public payable {... */\n      jump\t// out\n        /* \"FundMe/FundMe.sol\":196:222  uint256 public fundAmounts */\n    tag_8:\n      sload(0x00)\n      dup2\n      jump\t// out\n        /* \"#utility.yul\":7:84   */\n    tag_17:\n        /* \"#utility.yul\":44:51   */\n      0x00\n        /* \"#utility.yul\":73:78   */\n      dup2\n        /* \"#utility.yul\":62:78   */\n      swap1\n      pop\n        /* \"#utility.yul\":7:84   */\n      swap2\n      swap1\n      pop\n      jump\t// out\n        /* \"#utility.yul\":90:208   */\n    tag_18:\n        /* \"#utility.yul\":177:201   */\n      tag_26\n        /* \"#utility.yul\":195:200   */\n      dup2\n        /* \"#utility.yul\":177:201   */\n      tag_17\n      jump\t// in\n    tag_26:\n        /* \"#utility.yul\":172:175   */\n      dup3\n        /* \"#utility.yul\":165:202   */\n      mstore\n        /* \"#utility.yul\":90:208   */\n      pop\n      pop\n      jump\t// out\n        /* \"#utility.yul\":214:436   */\n    tag_10:\n        /* \"#utility.yul\":307:311   */\n      0x00\n        /* \"#utility.yul\":345:347   */\n      0x20\n        /* \"#utility.yul\":334:343   */\n      dup3\n        /* \"#utility.yul\":330:348   */\n      add\n        /* \"#utility.yul\":322:348   */\n      swap1\n      pop\n        /* \"#utility.yul\":358:429   */\n      tag_28\n        /* \"#utility.yul\":426:427   */\n      0x00\n        /* \"#utility.yul\":415:424   */\n      dup4\n        /* \"#utility.yul\":411:428   */\n      add\n        /* \"#utility.yul\":402:408   */\n      dup5\n        /* \"#utility.yul\":358:429   */\n      tag_18\n      jump\t// in\n    tag_28:\n        /* \"#utility.yul\":214:436   */\n      swap3\n      swap2\n      pop\n      pop\n      jump\t// out\n        /* \"#utility.yul\":442:622   */\n    tag_19:\n        /* \"#utility.yul\":490:567   */\n      0x4e487b7100000000000000000000000000000000000000000000000000000000\n        /* \"#utility.yul\":487:488   */\n      0x00\n        /* \"#utility.yul\":480:568   */\n      mstore\n        /* \"#utility.yul\":587:591   */\n      0x11\n        /* \"#utility.yul\":584:585   */\n      0x04\n        /* \"#utility.yul\":577:592   */\n      mstore\n        /* \"#utility.yul\":611:615   */\n      0x24\n        /* \"#utility.yul\":608:609   */\n      0x00\n        /* \"#utility.yul\":601:616   */\n      revert\n        /* \"#utility.yul\":628:819   */\n    tag_13:\n        /* \"#utility.yul\":668:671   */\n      0x00\n        /* \"#utility.yul\":687:707   */\n      tag_31\n        /* \"#utility.yul\":705:706   */\n      dup3\n        /* \"#utility.yul\":687:707   */\n      tag_17\n      jump\t// in\n    tag_31:\n        /* \"#utility.yul\":682:707   */\n      swap2\n      pop\n        /* \"#utility.yul\":721:741   */\n      tag_32\n        /* \"#utility.yul\":739:740   */\n      dup4\n        /* \"#utility.yul\":721:741   */\n      tag_17\n      jump\t// in\n    tag_32:\n        /* \"#utility.yul\":716:741   */\n      swap3\n      pop\n        /* \"#utility.yul\":764:765   */\n      dup3\n        /* \"#utility.yul\":761:762   */\n      dup3\n        /* \"#utility.yul\":757:766   */\n      add\n        /* \"#utility.yul\":750:766   */\n      swap1\n      pop\n        /* \"#utility.yul\":785:788   */\n      dup1\n        /* \"#utility.yul\":782:783   */\n      dup3\n        /* \"#utility.yul\":779:789   */\n      gt\n        /* \"#utility.yul\":776:812   */\n      iszero\n      tag_33\n      jumpi\n        /* \"#utility.yul\":792:810   */\n      tag_34\n      tag_19\n      jump\t// in\n    tag_34:\n        /* \"#utility.yul\":776:812   */\n    tag_33:\n        /* \"#utility.yul\":628:819   */\n      swap3\n      swap2\n      pop\n      pop\n      jump\t// out\n        /* \"#utility.yul\":825:994   */\n    tag_20:\n        /* \"#utility.yul\":909:920   */\n      0x00\n        /* \"#utility.yul\":943:949   */\n      dup3\n        /* \"#utility.yul\":938:941   */\n      dup3\n        /* \"#utility.yul\":931:950   */\n      mstore\n        /* \"#utility.yul\":983:987   */\n      0x20\n        /* \"#utility.yul\":978:981   */\n      dup3\n        /* \"#utility.yul\":974:988   */\n      add\n        /* \"#utility.yul\":959:988   */\n      swap1\n      pop\n        /* \"#utility.yul\":825:994   */\n      swap3\n      swap2\n      pop\n      pop\n      jump\t// out\n        /* \"#utility.yul\":1000:1174   */\n    tag_21:\n        /* \"#utility.yul\":1140:1166   */\n      0x596f75206d7573742073656e6420736f6d652045746865720000000000000000\n        /* \"#utility.yul\":1136:1137   */\n      0x00\n        /* \"#utility.yul\":1128:1134   */\n      dup3\n        /* \"#utility.yul\":1124:1138   */\n      add\n        /* \"#utility.yul\":1117:1167   */\n      mstore\n        /* \"#utility.yul\":1000:1174   */\n      pop\n      jump\t// out\n        /* \"#utility.yul\":1180:1546   */\n    tag_22:\n        /* \"#utility.yul\":1322:1325   */\n      0x00\n        /* \"#utility.yul\":1343:1410   */\n      tag_38\n        /* \"#utility.yul\":1407:1409   */\n      0x18\n        /* \"#utility.yul\":1402:1405   */\n      dup4\n        /* \"#utility.yul\":1343:1410   */\n      tag_20\n      jump\t// in\n    tag_38:\n        /* \"#utility.yul\":1336:1410   */\n      swap2\n      pop\n        /* \"#utility.yul\":1419:1512   */\n      tag_39\n        /* \"#utility.yul\":1508:1511   */\n      dup3\n        /* \"#utility.yul\":1419:1512   */\n      tag_21\n      jump\t// in\n    tag_39:\n        /* \"#utility.yul\":1537:1539   */\n      0x20\n        /* \"#utility.yul\":1532:1535   */\n      dup3\n        /* \"#utility.yul\":1528:1540   */\n      add\n        /* \"#utility.yul\":1521:1540   */\n      swap1\n      pop\n        /* \"#utility.yul\":1180:1546   */\n      swap2\n      swap1\n      pop\n      jump\t// out\n        /* \"#utility.yul\":1552:1971   */\n    tag_16:\n        /* \"#utility.yul\":1718:1722   */\n      0x00\n        /* \"#utility.yul\":1756:1758   */\n      0x20\n        /* \"#utility.yul\":1745:1754   */\n      dup3\n        /* \"#utility.yul\":1741:1759   */\n      add\n        /* \"#utility.yul\":1733:1759   */\n      swap1\n      pop\n        /* \"#utility.yul\":1805:1814   */\n      dup2\n        /* \"#utility.yul\":1799:1803   */\n      dup2\n        /* \"#utility.yul\":1795:1815   */\n      sub\n        /* \"#utility.yul\":1791:1792   */\n      0x00\n        /* \"#utility.yul\":1780:1789   */\n      dup4\n        /* \"#utility.yul\":1776:1793   */\n      add\n        /* \"#utility.yul\":1769:1816   */\n      mstore\n        /* \"#utility.yul\":1833:1964   */\n      tag_41\n        /* \"#utility.yul\":1959:1963   */\n      dup2\n        /* \"#utility.yul\":1833:1964   */\n      tag_22\n      jump\t// in\n    tag_41:\n        /* \"#utility.yul\":1825:1964   */\n      swap1\n      pop\n        /* \"#utility.yul\":1552:1971   */\n      swap2\n      swap1\n      pop\n      jump\t// out\n\n    auxdata: 0xa2646970667358221220b0194696227e33099e087628b41edc9c9013f06238e001564e714eb21edd698e64736f6c634300081b0033\n}\n",
				"bytecode": {
					"linkReferences": {},
					"object": "608060405260035f819055506101ff806100185f395ff3fe608060405260043610610028575f3560e01c8063b6a324e01461002c578063ef75336e14610036575b5f5ffd5b610034610060565b005b348015610041575f5ffd5b5061004a6100bb565b60405161005791906100d8565b60405180910390f35b5f60099050600281610072919061011e565b90505f543410156100b8576040517f08c379a00000000000000000000000000000000000000000000000000000000081526004016100af906101ab565b60405180910390fd5b50565b5f5481565b5f819050919050565b6100d2816100c0565b82525050565b5f6020820190506100eb5f8301846100c9565b92915050565b7f4e487b71000000000000000000000000000000000000000000000000000000005f52601160045260245ffd5b5f610128826100c0565b9150610133836100c0565b925082820190508082111561014b5761014a6100f1565b5b92915050565b5f82825260208201905092915050565b7f596f75206d7573742073656e6420736f6d6520457468657200000000000000005f82015250565b5f610195601883610151565b91506101a082610161565b602082019050919050565b5f6020820190508181035f8301526101c281610189565b905091905056fea2646970667358221220b0194696227e33099e087628b41edc9c9013f06238e001564e714eb21edd698e64736f6c634300081b0033",
					"opcodes": "PUSH1 0x80 PUSH1 0x40 MSTORE PUSH1 0x3 PUSH0 DUP2 SWAP1 SSTORE POP PUSH2 0x1FF DUP1 PUSH2 0x18 PUSH0 CODECOPY PUSH0 RETURN INVALID PUSH1 0x80 PUSH1 0x40 MSTORE PUSH1 0x4 CALLDATASIZE LT PUSH2 0x28 JUMPI PUSH0 CALLDATALOAD PUSH1 0xE0 SHR DUP1 PUSH4 0xB6A324E0 EQ PUSH2 0x2C JUMPI DUP1 PUSH4 0xEF75336E EQ PUSH2 0x36 JUMPI JUMPDEST PUSH0 PUSH0 REVERT JUMPDEST PUSH2 0x34 PUSH2 0x60 JUMP JUMPDEST STOP JUMPDEST CALLVALUE DUP1 ISZERO PUSH2 0x41 JUMPI PUSH0 PUSH0 REVERT JUMPDEST POP PUSH2 0x4A PUSH2 0xBB JUMP JUMPDEST PUSH1 0x40 MLOAD PUSH2 0x57 SWAP2 SWAP1 PUSH2 0xD8 JUMP JUMPDEST PUSH1 0x40 MLOAD DUP1 SWAP2 SUB SWAP1 RETURN JUMPDEST PUSH0 PUSH1 0x9 SWAP1 POP PUSH1 0x2 DUP2 PUSH2 0x72 SWAP2 SWAP1 PUSH2 0x11E JUMP JUMPDEST SWAP1 POP PUSH0 SLOAD CALLVALUE LT ISZERO PUSH2 0xB8 JUMPI PUSH1 0x40 MLOAD PUSH32 0x8C379A000000000000000000000000000000000000000000000000000000000 DUP2 MSTORE PUSH1 0x4 ADD PUSH2 0xAF SWAP1 PUSH2 0x1AB JUMP JUMPDEST PUSH1 0x40 MLOAD DUP1 SWAP2 SUB SWAP1 REVERT JUMPDEST POP JUMP JUMPDEST PUSH0 SLOAD DUP2 JUMP JUMPDEST PUSH0 DUP2 SWAP1 POP SWAP2 SWAP1 POP JUMP JUMPDEST PUSH2 0xD2 DUP2 PUSH2 0xC0 JUMP JUMPDEST DUP3 MSTORE POP POP JUMP JUMPDEST PUSH0 PUSH1 0x20 DUP3 ADD SWAP1 POP PUSH2 0xEB PUSH0 DUP4 ADD DUP5 PUSH2 0xC9 JUMP JUMPDEST SWAP3 SWAP2 POP POP JUMP JUMPDEST PUSH32 0x4E487B7100000000000000000000000000000000000000000000000000000000 PUSH0 MSTORE PUSH1 0x11 PUSH1 0x4 MSTORE PUSH1 0x24 PUSH0 REVERT JUMPDEST PUSH0 PUSH2 0x128 DUP3 PUSH2 0xC0 JUMP JUMPDEST SWAP2 POP PUSH2 0x133 DUP4 PUSH2 0xC0 JUMP JUMPDEST SWAP3 POP DUP3 DUP3 ADD SWAP1 POP DUP1 DUP3 GT ISZERO PUSH2 0x14B JUMPI PUSH2 0x14A PUSH2 0xF1 JUMP JUMPDEST JUMPDEST SWAP3 SWAP2 POP POP JUMP JUMPDEST PUSH0 DUP3 DUP3 MSTORE PUSH1 0x20 DUP3 ADD SWAP1 POP SWAP3 SWAP2 POP POP JUMP JUMPDEST PUSH32 0x596F75206D7573742073656E6420736F6D652045746865720000000000000000 PUSH0 DUP3 ADD MSTORE POP JUMP JUMPDEST PUSH0 PUSH2 0x195 PUSH1 0x18 DUP4 PUSH2 0x151 JUMP JUMPDEST SWAP2 POP PUSH2 0x1A0 DUP3 PUSH2 0x161 JUMP JUMPDEST PUSH1 0x20 DUP3 ADD SWAP1 POP SWAP2 SWAP1 POP JUMP JUMPDEST PUSH0 PUSH1 0x20 DUP3 ADD SWAP1 POP DUP2 DUP2 SUB PUSH0 DUP4 ADD MSTORE PUSH2 0x1C2 DUP2 PUSH2 0x189 JUMP JUMPDEST SWAP1 POP SWAP2 SWAP1 POP JUMP INVALID LOG2 PUSH5 0x6970667358 0x22 SLT KECCAK256 0xB0 NOT CHAINID SWAP7 0x22 PUSH31 0x33099E087628B41EDC9C9013F06238E001564E714EB21EDD698E64736F6C63 NUMBER STOP ADDMOD SHL STOP CALLER "
				},
				"gasEstimates": {
					"creation": {
						"codeDepositCost": "102200",
						"executionCost": "22234",
						"totalCost": "124434"
					},
					"external": {
						"fundAmounts()": "2424",
						"fundMe()": "infinite"
					}
				},
				"methodIdentifiers": {
					"fundAmounts()": "ef75336e",
					"fundMe()": "b6a324e0"
				}
			},
			"storageLayout": {
				"storage": [
					{
						"astId": 51,
						"contract": "FundMe/FundMe.sol:FundMe",
						"label": "fundAmounts",
						"offset": 0,
						"slot": "0",
						"type": "t_uint256"
					}
				],
				"types": {
					"t_uint256": {
						"encoding": "inplace",
						"label": "uint256",
						"numberOfBytes": "32"
					}
				}
			},
			"userdoc": {
				"kind": "user",
				"methods": {},
				"version": 1
			}
		}
	}
}